{"abi":[{"type":"constructor","inputs":[{"name":"_chessToken","type":"address","internalType":"address"}],"stateMutability":"nonpayable"},{"type":"function","name":"EXPIRY_BLOCKS","inputs":[],"outputs":[{"name":"","type":"uint256","internalType":"uint256"}],"stateMutability":"view"},{"type":"function","name":"K_FACTOR","inputs":[],"outputs":[{"name":"","type":"uint256","internalType":"uint256"}],"stateMutability":"view"},{"type":"function","name":"MIN_RATING","inputs":[],"outputs":[{"name":"","type":"uint256","internalType":"uint256"}],"stateMutability":"view"},{"type":"function","name":"STARTING_ELO","inputs":[],"outputs":[{"name":"","type":"uint256","internalType":"uint256"}],"stateMutability":"view"},{"type":"function","name":"acceptDraw","inputs":[{"name":"gameId","type":"uint256","internalType":"uint256"}],"outputs":[],"stateMutability":"nonpayable"},{"type":"function","name":"canReclaim","inputs":[{"name":"gameId","type":"uint256","internalType":"uint256"}],"outputs":[{"name":"","type":"bool","internalType":"bool"}],"stateMutability":"view"},{"type":"function","name":"cancelGame","inputs":[{"name":"gameId","type":"uint256","internalType":"uint256"}],"outputs":[],"stateMutability":"nonpayable"},{"type":"function","name":"chessToken","inputs":[],"outputs":[{"name":"","type":"address","internalType":"contract IERC20"}],"stateMutability":"view"},{"type":"function","name":"createGame","inputs":[{"name":"wager","type":"uint256","internalType":"uint256"}],"outputs":[{"name":"gameId","type":"uint256","internalType":"uint256"}],"stateMutability":"nonpayable"},{"type":"function","name":"gameNonce","inputs":[],"outputs":[{"name":"","type":"uint256","internalType":"uint256"}],"stateMutability":"view"},{"type":"function","name":"games","inputs":[{"name":"","type":"uint256","internalType":"uint256"}],"outputs":[{"name":"white","type":"address","internalType":"address"},{"name":"black","type":"address","internalType":"address"},{"name":"wager","type":"uint256","internalType":"uint256"},{"name":"status","type":"uint8","internalType":"enum ChessGame.GameStatus"},{"name":"result","type":"uint8","internalType":"enum ChessGame.GameResult"},{"name":"createdAt","type":"uint256","internalType":"uint256"},{"name":"drawProposer","type":"address","internalType":"address"}],"stateMutability":"view"},{"type":"function","name":"getGame","inputs":[{"name":"gameId","type":"uint256","internalType":"uint256"}],"outputs":[{"name":"","type":"tuple","internalType":"struct ChessGame.Game","components":[{"name":"white","type":"address","internalType":"address"},{"name":"black","type":"address","internalType":"address"},{"name":"wager","type":"uint256","internalType":"uint256"},{"name":"status","type":"uint8","internalType":"enum ChessGame.GameStatus"},{"name":"result","type":"uint8","internalType":"enum ChessGame.GameResult"},{"name":"createdAt","type":"uint256","internalType":"uint256"},{"name":"drawProposer","type":"address","internalType":"address"}]}],"stateMutability":"view"},{"type":"function","name":"getPlayerStats","inputs":[{"name":"player","type":"address","internalType":"address"}],"outputs":[{"name":"","type":"tuple","internalType":"struct ChessGame.PlayerStats","components":[{"name":"wins","type":"uint256","internalType":"uint256"},{"name":"losses","type":"uint256","internalType":"uint256"},{"name":"draws","type":"uint256","internalType":"uint256"},{"name":"rating","type":"uint256","internalType":"uint256"},{"name":"gamesPlayed","type":"uint256","internalType":"uint256"}]}],"stateMutability":"view"},{"type":"function","name":"joinGame","inputs":[{"name":"gameId","type":"uint256","internalType":"uint256"}],"outputs":[],"stateMutability":"nonpayable"},{"type":"function","name":"oracle","inputs":[],"outputs":[{"name":"","type":"address","internalType":"address"}],"stateMutability":"view"},{"type":"function","name":"owner","inputs":[],"outputs":[{"name":"","type":"address","internalType":"address"}],"stateMutability":"view"},{"type":"function","name":"playerStats","inputs":[{"name":"","type":"address","internalType":"address"}],"outputs":[{"name":"wins","type":"uint256","internalType":"uint256"},{"name":"losses","type":"uint256","internalType":"uint256"},{"name":"draws","type":"uint256","internalType":"uint256"},{"name":"rating","type":"uint256","internalType":"uint256"},{"name":"gamesPlayed","type":"uint256","internalType":"uint256"}],"stateMutability":"view"},{"type":"function","name":"proposeDraw","inputs":[{"name":"gameId","type":"uint256","internalType":"uint256"}],"outputs":[],"stateMutability":"nonpayable"},{"type":"function","name":"reclaimExpired","inputs":[{"name":"gameId","type":"uint256","internalType":"uint256"}],"outputs":[],"stateMutability":"nonpayable"},{"type":"function","name":"renounceOwnership","inputs":[],"outputs":[],"stateMutability":"nonpayable"},{"type":"function","name":"resign","inputs":[{"name":"gameId","type":"uint256","internalType":"uint256"}],"outputs":[],"stateMutability":"nonpayable"},{"type":"function","name":"setOracle","inputs":[{"name":"newOracle","type":"address","internalType":"address"}],"outputs":[],"stateMutability":"nonpayable"},{"type":"function","name":"settleGame","inputs":[{"name":"gameId","type":"uint256","internalType":"uint256"},{"name":"result","type":"uint8","internalType":"enum ChessGame.GameResult"}],"outputs":[],"stateMutability":"nonpayable"},{"type":"function","name":"totalGames","inputs":[],"outputs":[{"name":"","type":"uint256","internalType":"uint256"}],"stateMutability":"view"},{"type":"function","name":"transferOwnership","inputs":[{"name":"newOwner","type":"address","internalType":"address"}],"outputs":[],"stateMutability":"nonpayable"},{"type":"event","name":"DrawAccepted","inputs":[{"name":"gameId","type":"uint256","indexed":true,"internalType":"uint256"}],"anonymous":false},{"type":"event","name":"DrawProposed","inputs":[{"name":"gameId","type":"uint256","indexed":true,"internalType":"uint256"},{"name":"proposer","type":"address","indexed":true,"internalType":"address"}],"anonymous":false},{"type":"event","name":"GameCancelled","inputs":[{"name":"gameId","type":"uint256","indexed":true,"internalType":"uint256"},{"name":"creator","type":"address","indexed":true,"internalType":"address"}],"anonymous":false},{"type":"event","name":"GameCreated","inputs":[{"name":"gameId","type":"uint256","indexed":true,"internalType":"uint256"},{"name":"white","type":"address","indexed":true,"internalType":"address"},{"name":"wager","type":"uint256","indexed":false,"internalType":"uint256"}],"anonymous":false},{"type":"event","name":"GameJoined","inputs":[{"name":"gameId","type":"uint256","indexed":true,"internalType":"uint256"},{"name":"black","type":"address","indexed":true,"internalType":"address"}],"anonymous":false},{"type":"event","name":"GameResigned","inputs":[{"name":"gameId","type":"uint256","indexed":true,"internalType":"uint256"},{"name":"loser","type":"address","indexed":true,"internalType":"address"},{"name":"winner","type":"address","indexed":true,"internalType":"address"}],"anonymous":false},{"type":"event","name":"GameSettled","inputs":[{"name":"gameId","type":"uint256","indexed":true,"internalType":"uint256"},{"name":"result","type":"uint8","indexed":false,"internalType":"enum ChessGame.GameResult"},{"name":"winner","type":"address","indexed":false,"internalType":"address"}],"anonymous":false},{"type":"event","name":"OracleUpdated","inputs":[{"name":"oracle","type":"address","indexed":true,"internalType":"address"}],"anonymous":false},{"type":"event","name":"OwnershipTransferred","inputs":[{"name":"previousOwner","type":"address","indexed":true,"internalType":"address"},{"name":"newOwner","type":"address","indexed":true,"internalType":"address"}],"anonymous":false},{"type":"event","name":"WagerReclaimed","inputs":[{"name":"gameId","type":"uint256","indexed":true,"internalType":"uint256"},{"name":"by","type":"address","indexed":true,"internalType":"address"}],"anonymous":false},{"type":"error","name":"AlreadyProposedDraw","inputs":[]},{"type":"error","name":"CannotAcceptOwnDraw","inputs":[]},{"type":"error","name":"CannotJoinOwnGame","inputs":[]},{"type":"error","name":"GameNotActive","inputs":[]},{"type":"error","name":"GameNotFound","inputs":[]},{"type":"error","name":"GameNotWaiting","inputs":[]},{"type":"error","name":"InvalidResult","inputs":[]},{"type":"error","name":"NoDrawProposed","inputs":[]},{"type":"error","name":"NotExpired","inputs":[]},{"type":"error","name":"NotOracle","inputs":[]},{"type":"error","name":"NotYourGame","inputs":[]},{"type":"error","name":"OwnableInvalidOwner","inputs":[{"name":"owner","type":"address","internalType":"address"}]},{"type":"error","name":"OwnableUnauthorizedAccount","inputs":[{"name":"account","type":"address","internalType":"address"}]},{"type":"error","name":"ReentrancyGuardReentrantCall","inputs":[]},{"type":"error","name":"SafeERC20FailedOperation","inputs":[{"name":"token","type":"address","internalType":"address"}]}],"bytecode":{"object":"0x60a060405234801561000f575f5ffd5b50604051611be5380380611be583398101604081905261002e916100c3565b60015f55338061005757604051631e4fbdf760e01b81525f600482015260240160405180910390fd5b61006081610072565b506001600160a01b03166080526100f0565b600180546001600160a01b038381166001600160a01b0319831681179093556040519116919082907f8be0079c531659141344cd1fd0a4f28419497f9722a3daafe3b4186f6b6457e0905f90a35050565b5f602082840312156100d3575f5ffd5b81516001600160a01b03811681146100e9575f5ffd5b9392505050565b608051611aa56101405f395f818161042b015281816105410152818161058301528181610751015281816109f801528181610ffb015281816112c8015281816114d9015261151b0152611aa55ff3fe608060405234801561000f575f5ffd5b506004361061016d575f3560e01c80637dc0d1d0116100d9578063b0c6e22811610093578063efaa55a01161006e578063efaa55a0146103ed578063f2fde38b14610400578063f95d47ce14610413578063fd36b43514610426575f5ffd5b8063b0c6e2281461035e578063bb0e4ea214610381578063cdafbbb614610389575f5ffd5b80637dc0d1d0146102d35780638da5cb5b146102fe5780638e1a77461461030f57806393ffb100146103225780639aabacb41461032b578063a2f77bcc1461033e575f5ffd5b80634fd66eae1161012a5780634fd66eae1461024057806350038b261461029457806369958ab91461029d578063715018a6146102b057806377519b73146102b85780637adbf973146102c0575f5ffd5b806301bb9baa146101715780630720bfd41461018657806308d9801c146101a2578063117a5b90146101b55780632c4e591b1461022557806348e837b91461022d575b5f5ffd5b61018461017f366004611844565b61044d565b005b61018f61a8c081565b6040519081526020015b60405180910390f35b6101846101b0366004611844565b6105e6565b6102126101c3366004611844565b600460208190525f91825260409091208054600182015460028301546003840154948401546005909401546001600160a01b039384169592841694919360ff8085169461010090041692911687565b604051610199979695949392919061188b565b60035461018f565b61018f61023b366004611844565b610720565b61025361024e3660046118e9565b6108cd565b60405161019991905f60a082019050825182526020830151602083015260408301516040830152606083015160608301526080830151608083015292915050565b61018f6104b081565b6101846102ab366004611844565b610951565b610184610a58565b61018f602081565b6101846102ce3660046118e9565b610a6b565b6002546102e6906001600160a01b031681565b6040516001600160a01b039091168152602001610199565b6001546001600160a01b03166102e6565b61018461031d366004611844565b610abc565b61018f60035481565b610184610339366004611916565b610be5565b61035161034c366004611844565b610ddf565b6040516101999190611947565b61037161036c366004611844565b610eee565b6040519015158152602001610199565b61018f606481565b6103c56103973660046118e9565b60056020525f9081526040902080546001820154600283015460038401546004909401549293919290919085565b604080519586526020860194909452928401919091526060830152608082015260a001610199565b6101846103fb366004611844565b610f3f565b61018461040e3660046118e9565b61108a565b610184610421366004611844565b6110c9565b6102e67f000000000000000000000000000000000000000000000000000000000000000081565b6104556111c7565b5f8181526004602052604090206001600382015460ff16600481111561047d5761047d61185b565b1461049a5760405162a3097160e01b815260040160405180910390fd5b80546001600160a01b031633148015906104c1575060018101546001600160a01b03163314155b156104df57604051631794a8af60e11b815260040160405180910390fd5b61a8c08160040154436104f291906119d0565b10156105115760405163d0404f8560e01b815260040160405180910390fd5b60038101805461ffff19166104031790556002810154156105ad578054600282015461056b916001600160a01b037f00000000000000000000000000000000000000000000000000000000000000008116929116906111ef565b600181015460028201546105ad916001600160a01b037f00000000000000000000000000000000000000000000000000000000000000008116929116906111ef565b604051339083907f2f85c851c78b1cb3f0c6ff8de49b862690a7b2b17cdebc7aba6ddc65b7a84058905f90a3506105e360015f55565b50565b6105ee6111c7565b5f8181526004602052604090206001600382015460ff1660048111156106165761061661185b565b146106335760405162a3097160e01b815260040160405180910390fd5b80546001600160a01b0316331480159061065a575060018101546001600160a01b03163314155b1561067857604051631794a8af60e11b815260040160405180910390fd5b80545f906001600160a01b0316331461069b5781546001600160a01b03166106aa565b60018201546001600160a01b03165b82549091505f906001600160a01b038084169116146106ca5760026106cd565b60015b90506106dd836002838533611253565b6040516001600160a01b03831690339086907fd558b2c617a874fe8e918102316b474c7ca048899b5f8255a76fe9fd9b4a2930905f90a45050506105e360015f55565b5f6107296111c7565b60038054905f610738836119e9565b9091555090508115610779576107796001600160a01b037f0000000000000000000000000000000000000000000000000000000000000000163330856113aa565b610782336113e9565b6040805160e0810182523381525f602080830182815283850187815260608501848152608086018590524360a087015260c0860185905287855260049384905295909320845181546001600160a01b03199081166001600160a01b039283161783559251600180840180549095169190921617909255925160028401559351600383018054949593949193909260ff199092169184908111156108275761082761185b565b0217905550608082015160038201805461ff0019166101008360048111156108515761085161185b565b021790555060a0820151600482015560c090910151600590910180546001600160a01b0319166001600160a01b03909216919091179055604051828152339082907f7dfb67e9ff596fca4da65c7eedb128cd1aac553af54b3c0cb733625a2480d8bd9060200160405180910390a36108c860015f55565b919050565b6108fa6040518060a001604052805f81526020015f81526020015f81526020015f81526020015f81525090565b506001600160a01b03165f90815260056020908152604091829020825160a0810184528154815260018201549281019290925260028101549282019290925260038201546060820152600490910154608082015290565b6109596111c7565b5f81815260046020526040812090600382015460ff1660048111156109805761098061185b565b1461099e576040516305b56e4b60e31b815260040160405180910390fd5b80546001600160a01b031633146109c857604051631794a8af60e11b815260040160405180910390fd5b60038101805461ffff1916610403179055600281015415610a225780546002820154610a22916001600160a01b037f00000000000000000000000000000000000000000000000000000000000000008116929116906111ef565b604051339083907f58f64e02b3a6d2a3bd28b7700a0a0d6699545bcb55bf917ac0ff670f3a509efb905f90a3506105e360015f55565b610a6061142b565b610a695f611458565b565b610a7361142b565b600280546001600160a01b0319166001600160a01b0383169081179091556040517f3df77beb5db05fcdd70a30fc8adf3f83f9501b68579455adbd100b8180940394905f90a250565b610ac46111c7565b5f8181526004602052604090206001600382015460ff166004811115610aec57610aec61185b565b14610b095760405162a3097160e01b815260040160405180910390fd5b80546001600160a01b03163314801590610b30575060018101546001600160a01b03163314155b15610b4e57604051631794a8af60e11b815260040160405180910390fd5b60058101546001600160a01b0316610b795760405163076651cd60e21b815260040160405180910390fd5b6005810154336001600160a01b0390911603610ba8576040516305d07d1160e01b815260040160405180910390fd5b610bb1816114a9565b60405182907ffa9d598b792ca75a9136b4c4d3cae43098ce08ded2cadd35018cbeb02f93c8cf905f90a2506105e360015f55565b6002546001600160a01b03163314610c1057604051631bc2178f60e01b815260040160405180910390fd5b610c186111c7565b5f8281526004602052604090206001600382015460ff166004811115610c4057610c4061185b565b14610c5d5760405162a3097160e01b815260040160405180910390fd5b6001826004811115610c7157610c7161185b565b1480610c8e57506002826004811115610c8c57610c8c61185b565b145b15610d58575f6001836004811115610ca857610ca861185b565b14610cc05760018201546001600160a01b0316610ccc565b81546001600160a01b03165b90505f6001846004811115610ce357610ce361185b565b14610cf85782546001600160a01b0316610d07565b60018301546001600160a01b03165b9050610d17836002868585611253565b847f1c7d74da9011428b099ee0edea7feb79f452148cd146b522a9ac1ad6f6c4ee7f8584604051610d49929190611a01565b60405180910390a25050610dd1565b6003826004811115610d6c57610d6c61185b565b03610db957610d7a816114a9565b827f1c7d74da9011428b099ee0edea7feb79f452148cd146b522a9ac1ad6f6c4ee7f835f604051610dac929190611a01565b60405180910390a2610dd1565b60405162f8b33f60e71b815260040160405180910390fd5b50610ddb60015f55565b5050565b610e1c6040805160e0810182525f8082526020820181905291810182905290606082019081526020015f81525f6020820181905260409091015290565b5f82815260046020818152604092839020835160e08101855281546001600160a01b039081168252600183015416928101929092526002810154938201939093526003830154909291606084019160ff1690811115610e7d57610e7d61185b565b6004811115610e8e57610e8e61185b565b81526020016003820160019054906101000a900460ff166004811115610eb657610eb661185b565b6004811115610ec757610ec761185b565b8152600482015460208201526005909101546001600160a01b031660409091015292915050565b5f8181526004602052604081206001600382015460ff166004811115610f1657610f1661185b565b14610f2357505f92915050565b61a8c0816004015443610f3691906119d0565b10159392505050565b610f476111c7565b5f81815260046020526040902080546001600160a01b0316610f7c576040516309b3c62760e21b815260040160405180910390fd5b5f600382015460ff166004811115610f9657610f9661185b565b14610fb4576040516305b56e4b60e31b815260040160405180910390fd5b80546001600160a01b03163303610fde5760405163106a317d60e01b815260040160405180910390fd5b600281015415611025576002810154611025906001600160a01b037f00000000000000000000000000000000000000000000000000000000000000001690339030906113aa565b61102e336113e9565b600180820180546001600160a01b0319163317905560038201805460ff191682800217905550604051339083907f45c4f9cbafe186141862608c493f28b823fde4c2142bedc3f5169961a73fdd22905f90a3506105e360015f55565b61109261142b565b6001600160a01b0381166110c057604051631e4fbdf760e01b81525f60048201526024015b60405180910390fd5b6105e381611458565b5f8181526004602052604090206001600382015460ff1660048111156110f1576110f161185b565b1461110e5760405162a3097160e01b815260040160405180910390fd5b80546001600160a01b03163314801590611135575060018101546001600160a01b03163314155b1561115357604051631794a8af60e11b815260040160405180910390fd5b6005810154336001600160a01b0390911603611182576040516328dbb01960e21b815260040160405180910390fd5b6005810180546001600160a01b0319163390811790915560405183907f94ec6bf2d915475120fbfbf7559f540937a96e0bfbf8310ae20d036ed0c73889905f90a35050565b60025f54036111e957604051633ee5aeb560e01b815260040160405180910390fd5b60025f55565b6040516001600160a01b0383811660248301526044820183905261124e91859182169063a9059cbb906064015b604051602081830303815290604052915060e01b6020820180516001600160e01b0383818316178352505050506115fe565b505050565b60038501805485919060ff191660018360048111156112745761127461185b565b021790555060038501805484919061ff00191661010083600481111561129c5761129c61185b565b02179055505f856002015460026112b39190611a26565b905080156112ef576112ef6001600160a01b037f00000000000000000000000000000000000000000000000000000000000000001684836111ef565b6001600160a01b0383165f908152600560205260408120805491611312836119e9565b90915550506001600160a01b0383165f90815260056020526040812060040180549161133d836119e9565b90915550506001600160a01b0382165f908152600560205260408120600101805491611368836119e9565b90915550506001600160a01b0382165f908152600560205260408120600401805491611393836119e9565b91905055506113a2838361166a565b505050505050565b6040516001600160a01b0384811660248301528381166044830152606482018390526113e39186918216906323b872dd9060840161121c565b50505050565b6001600160a01b0381165f9081526005602052604081206003015490036105e3576001600160a01b03165f9081526005602052604090206104b0600390910155565b6001546001600160a01b03163314610a695760405163118cdaa760e01b81523360048201526024016110b7565b600180546001600160a01b038381166001600160a01b0319831681179093556040519116919082907f8be0079c531659141344cd1fd0a4f28419497f9722a3daafe3b4186f6b6457e0905f90a35050565b60038101805461ffff19166103041790556002810154156115455780546002820154611503916001600160a01b037f00000000000000000000000000000000000000000000000000000000000000008116929116906111ef565b60018101546002820154611545916001600160a01b037f00000000000000000000000000000000000000000000000000000000000000008116929116906111ef565b80546001600160a01b03165f90815260056020526040812060020180549161156c836119e9565b909155505080546001600160a01b03165f908152600560205260408120600401805491611598836119e9565b909155505060018101546001600160a01b03165f9081526005602052604081206002018054916115c7836119e9565b909155505060018101546001600160a01b03165f9081526005602052604081206004018054916115f6836119e9565b919050555050565b5f5f60205f8451602086015f885af18061161d576040513d5f823e3d81fd5b50505f513d91508115611634578060011415611641565b6001600160a01b0384163b155b156113e357604051635274afe760e01b81526001600160a01b03851660048201526024016110b7565b6001600160a01b038083165f908152600560205260408082206003908101549385168352908220015490808083851061170a576116a784866119d0565b92506101908311156116b95761019092505b6103206116c8846101906119d0565b6116d3906020611a26565b6116dd9190611a3d565b91506103206116ee84610190611a5c565b6116f9906020611a26565b6117039190611a3d565b9050611773565b61171485856119d0565b92506101908311156117265761019092505b61032061173584610190611a5c565b611740906020611a26565b61174a9190611a3d565b915061032061175b846101906119d0565b611766906020611a26565b6117709190611a3d565b90505b815f0361177f57600191505b805f0361178a575060015b6001600160a01b0387165f90815260056020526040812060030180548492906117b4908490611a5c565b909155506117c59050606482611a5c565b6001600160a01b0387165f90815260056020526040902060030154111561181b576001600160a01b0386165f90815260056020526040812060030180548392906118109084906119d0565b9091555061183b9050565b6001600160a01b0386165f90815260056020526040902060646003909101555b50505050505050565b5f60208284031215611854575f5ffd5b5035919050565b634e487b7160e01b5f52602160045260245ffd5b600581106105e357634e487b7160e01b5f52602160045260245ffd5b6001600160a01b038881168252871660208201526040810186905260e081016118b38661186f565b8560608301526118c28561186f565b608082019490945260a08101929092526001600160a01b031660c090910152949350505050565b5f602082840312156118f9575f5ffd5b81356001600160a01b038116811461190f575f5ffd5b9392505050565b5f5f60408385031215611927575f5ffd5b8235915060208301356005811061193c575f5ffd5b809150509250929050565b81516001600160a01b0390811682526020808401519091169082015260408083015190820152606082015160e08201906119808161186f565b606083015260808301516119938161186f565b608083015260a0838101519083015260c0928301516001600160a01b0316929091019190915290565b634e487b7160e01b5f52601160045260245ffd5b818103818111156119e3576119e36119bc565b92915050565b5f600182016119fa576119fa6119bc565b5060010190565b60408101611a0e8461186f565b9281526001600160a01b039190911660209091015290565b80820281158282048414176119e3576119e36119bc565b5f82611a5757634e487b7160e01b5f52601260045260245ffd5b500490565b808201808211156119e3576119e36119bc56fea26469706673582212206596d210b514a66802cfd0227f4e0ec997d37c3a1f8d8dad4972bebd981103bb64736f6c634300081c0033","linkReferences":{}},"methodIdentifiers":{"EXPIRY_BLOCKS()":"0720bfd4","K_FACTOR()":"77519b73","MIN_RATING()":"bb0e4ea2","STARTING_ELO()":"50038b26","acceptDraw(uint256)":"8e1a7746","canReclaim(uint256)":"b0c6e228","cancelGame(uint256)":"69958ab9","chessToken()":"fd36b435","createGame(uint256)":"48e837b9","gameNonce()":"93ffb100","games(uint256)":"117a5b90","getGame(uint256)":"a2f77bcc","getPlayerStats(address)":"4fd66eae","joinGame(uint256)":"efaa55a0","oracle()":"7dc0d1d0","owner()":"8da5cb5b","playerStats(address)":"cdafbbb6","proposeDraw(uint256)":"f95d47ce","reclaimExpired(uint256)":"01bb9baa","renounceOwnership()":"715018a6","resign(uint256)":"08d9801c","setOracle(address)":"7adbf973","settleGame(uint256,uint8)":"9aabacb4","totalGames()":"2c4e591b","transferOwnership(address)":"f2fde38b"},"id":30}