{"abi":[{"type":"constructor","inputs":[],"stateMutability":"nonpayable"},{"type":"function","name":"FAUCET_AMOUNT","inputs":[],"outputs":[{"name":"","type":"uint256","internalType":"uint256"}],"stateMutability":"view"},{"type":"function","name":"FAUCET_COOLDOWN","inputs":[],"outputs":[{"name":"","type":"uint256","internalType":"uint256"}],"stateMutability":"view"},{"type":"function","name":"allowance","inputs":[{"name":"owner","type":"address","internalType":"address"},{"name":"spender","type":"address","internalType":"address"}],"outputs":[{"name":"","type":"uint256","internalType":"uint256"}],"stateMutability":"view"},{"type":"function","name":"approve","inputs":[{"name":"spender","type":"address","internalType":"address"},{"name":"value","type":"uint256","internalType":"uint256"}],"outputs":[{"name":"","type":"bool","internalType":"bool"}],"stateMutability":"nonpayable"},{"type":"function","name":"balanceOf","inputs":[{"name":"account","type":"address","internalType":"address"}],"outputs":[{"name":"","type":"uint256","internalType":"uint256"}],"stateMutability":"view"},{"type":"function","name":"batchMint","inputs":[{"name":"recipients","type":"address[]","internalType":"address[]"},{"name":"amounts","type":"uint256[]","internalType":"uint256[]"}],"outputs":[],"stateMutability":"nonpayable"},{"type":"function","name":"decimals","inputs":[],"outputs":[{"name":"","type":"uint8","internalType":"uint8"}],"stateMutability":"pure"},{"type":"function","name":"faucetClaim","inputs":[],"outputs":[],"stateMutability":"nonpayable"},{"type":"function","name":"faucetCooldownRemaining","inputs":[{"name":"account","type":"address","internalType":"address"}],"outputs":[{"name":"","type":"uint256","internalType":"uint256"}],"stateMutability":"view"},{"type":"function","name":"lastFaucetClaim","inputs":[{"name":"","type":"address","internalType":"address"}],"outputs":[{"name":"","type":"uint256","internalType":"uint256"}],"stateMutability":"view"},{"type":"function","name":"mint","inputs":[{"name":"to","type":"address","internalType":"address"},{"name":"amount","type":"uint256","internalType":"uint256"}],"outputs":[],"stateMutability":"nonpayable"},{"type":"function","name":"mintEnabled","inputs":[],"outputs":[{"name":"","type":"bool","internalType":"bool"}],"stateMutability":"view"},{"type":"function","name":"mintTo","inputs":[{"name":"to","type":"address","internalType":"address"},{"name":"amount","type":"uint256","internalType":"uint256"}],"outputs":[],"stateMutability":"nonpayable"},{"type":"function","name":"minter","inputs":[],"outputs":[{"name":"","type":"address","internalType":"address"}],"stateMutability":"view"},{"type":"function","name":"name","inputs":[],"outputs":[{"name":"","type":"string","internalType":"string"}],"stateMutability":"view"},{"type":"function","name":"owner","inputs":[],"outputs":[{"name":"","type":"address","internalType":"address"}],"stateMutability":"view"},{"type":"function","name":"renounceOwnership","inputs":[],"outputs":[],"stateMutability":"nonpayable"},{"type":"function","name":"setMintEnabled","inputs":[{"name":"enabled","type":"bool","internalType":"bool"}],"outputs":[],"stateMutability":"nonpayable"},{"type":"function","name":"setMinter","inputs":[{"name":"newMinter","type":"address","internalType":"address"}],"outputs":[],"stateMutability":"nonpayable"},{"type":"function","name":"symbol","inputs":[],"outputs":[{"name":"","type":"string","internalType":"string"}],"stateMutability":"view"},{"type":"function","name":"totalSupply","inputs":[],"outputs":[{"name":"","type":"uint256","internalType":"uint256"}],"stateMutability":"view"},{"type":"function","name":"transfer","inputs":[{"name":"to","type":"address","internalType":"address"},{"name":"value","type":"uint256","internalType":"uint256"}],"outputs":[{"name":"","type":"bool","internalType":"bool"}],"stateMutability":"nonpayable"},{"type":"function","name":"transferFrom","inputs":[{"name":"from","type":"address","internalType":"address"},{"name":"to","type":"address","internalType":"address"},{"name":"value","type":"uint256","internalType":"uint256"}],"outputs":[{"name":"","type":"bool","internalType":"bool"}],"stateMutability":"nonpayable"},{"type":"function","name":"transferOwnership","inputs":[{"name":"newOwner","type":"address","internalType":"address"}],"outputs":[],"stateMutability":"nonpayable"},{"type":"event","name":"Approval","inputs":[{"name":"owner","type":"address","indexed":true,"internalType":"address"},{"name":"spender","type":"address","indexed":true,"internalType":"address"},{"name":"value","type":"uint256","indexed":false,"internalType":"uint256"}],"anonymous":false},{"type":"event","name":"FaucetClaimed","inputs":[{"name":"player","type":"address","indexed":true,"internalType":"address"},{"name":"amount","type":"uint256","indexed":false,"internalType":"uint256"}],"anonymous":false},{"type":"event","name":"MintToggled","inputs":[{"name":"enabled","type":"bool","indexed":false,"internalType":"bool"}],"anonymous":false},{"type":"event","name":"MinterUpdated","inputs":[{"name":"minter","type":"address","indexed":true,"internalType":"address"}],"anonymous":false},{"type":"event","name":"OwnershipTransferred","inputs":[{"name":"previousOwner","type":"address","indexed":true,"internalType":"address"},{"name":"newOwner","type":"address","indexed":true,"internalType":"address"}],"anonymous":false},{"type":"event","name":"Transfer","inputs":[{"name":"from","type":"address","indexed":true,"internalType":"address"},{"name":"to","type":"address","indexed":true,"internalType":"address"},{"name":"value","type":"uint256","indexed":false,"internalType":"uint256"}],"anonymous":false},{"type":"error","name":"ERC20InsufficientAllowance","inputs":[{"name":"spender","type":"address","internalType":"address"},{"name":"allowance","type":"uint256","internalType":"uint256"},{"name":"needed","type":"uint256","internalType":"uint256"}]},{"type":"error","name":"ERC20InsufficientBalance","inputs":[{"name":"sender","type":"address","internalType":"address"},{"name":"balance","type":"uint256","internalType":"uint256"},{"name":"needed","type":"uint256","internalType":"uint256"}]},{"type":"error","name":"ERC20InvalidApprover","inputs":[{"name":"approver","type":"address","internalType":"address"}]},{"type":"error","name":"ERC20InvalidReceiver","inputs":[{"name":"receiver","type":"address","internalType":"address"}]},{"type":"error","name":"ERC20InvalidSender","inputs":[{"name":"sender","type":"address","internalType":"address"}]},{"type":"error","name":"ERC20InvalidSpender","inputs":[{"name":"spender","type":"address","internalType":"address"}]},{"type":"error","name":"FaucetCooldown","inputs":[{"name":"blocksRemaining","type":"uint256","internalType":"uint256"}]},{"type":"error","name":"InvalidAmount","inputs":[]},{"type":"error","name":"MintDisabled","inputs":[]},{"type":"error","name":"NotMinter","inputs":[]},{"type":"error","name":"OwnableInvalidOwner","inputs":[{"name":"owner","type":"address","internalType":"address"}]},{"type":"error","name":"OwnableUnauthorizedAccount","inputs":[{"name":"account","type":"address","internalType":"address"}]}],"bytecode":{"object":"0x60806040526005805460ff60a01b1916600160a01b179055348015610022575f5ffd5b50336040518060400160405280600b81526020016a21b432b9b9902a37b5b2b760a91b81525060405180604001604052806005815260200164434845535360d81b815250816003908161007591906101aa565b50600461008282826101aa565b5050506001600160a01b0381166100b257604051631e4fbdf760e01b81525f600482015260240160405180910390fd5b6100bb816100c1565b50610264565b600580546001600160a01b038381166001600160a01b0319831681179093556040519116919082907f8be0079c531659141344cd1fd0a4f28419497f9722a3daafe3b4186f6b6457e0905f90a35050565b634e487b7160e01b5f52604160045260245ffd5b600181811c9082168061013a57607f821691505b60208210810361015857634e487b7160e01b5f52602260045260245ffd5b50919050565b601f8211156101a557805f5260205f20601f840160051c810160208510156101835750805b601f840160051c820191505b818110156101a2575f815560010161018f565b50505b505050565b81516001600160401b038111156101c3576101c3610112565b6101d7816101d18454610126565b8461015e565b6020601f821160018114610209575f83156101f25750848201515b5f19600385901b1c1916600184901b1784556101a2565b5f84815260208120601f198516915b828110156102385787850151825560209485019460019092019101610218565b508482101561025557868401515f19600387901b60f8161c191681555b50505050600190811b01905550565b610f54806102715f395ff3fe608060405234801561000f575f5ffd5b5060043610610153575f3560e01c806376697640116100bf578063b44bae8e11610079578063b44bae8e146102c6578063d1239730146102d9578063dd62ed3e146102ed578063f2fde38b14610325578063f46a04eb14610338578063fca3b5aa1461034b575f5ffd5b8063766976401461026a5780637d1d5d19146102725780638a8772051461027b5780638da5cb5b1461029a57806395d89b41146102ab578063a9059cbb146102b3575f5ffd5b8063313ce56711610110578063313ce567146101f257806340c10f1914610201578063449a52f814610214578063685731071461022757806370a082311461023a578063715018a614610262575f5ffd5b806306fdde03146101575780630754617214610175578063095ea7b3146101a0578063155a3e18146101c357806318160ddd146101cd57806323b872dd146101df575b5f5ffd5b61015f61035e565b60405161016c9190610bba565b60405180910390f35b600654610188906001600160a01b031681565b6040516001600160a01b03909116815260200161016c565b6101b36101ae366004610c0a565b6103ee565b604051901515815260200161016c565b6101cb610407565b005b6002545b60405190815260200161016c565b6101b36101ed366004610c32565b610514565b6040516006815260200161016c565b6101cb61020f366004610c0a565b610537565b6101cb610222366004610c0a565b610597565b6101cb610235366004610cb4565b6105c2565b6101d1610248366004610d20565b6001600160a01b03165f9081526020819052604090205490565b6101cb610696565b6101d16106a9565b6101d161a8c081565b6101d1610289366004610d20565b60076020525f908152604090205481565b6005546001600160a01b0316610188565b61015f6106c4565b6101b36102c1366004610c0a565b6106d3565b6101d16102d4366004610d20565b6106e0565b6005546101b390600160a01b900460ff1681565b6101d16102fb366004610d40565b6001600160a01b039182165f90815260016020908152604080832093909416825291909152205490565b6101cb610333366004610d20565b610738565b6101cb610346366004610d71565b610775565b6101cb610359366004610d20565b6107d5565b60606003805461036d90610d90565b80601f016020809104026020016040519081016040528092919081815260200182805461039990610d90565b80156103e45780601f106103bb576101008083540402835291602001916103e4565b820191905f5260205f20905b8154815290600101906020018083116103c757829003601f168201915b5050505050905090565b5f336103fb818585610826565b60019150505b92915050565b600554600160a01b900460ff16610431576040516317efbd6b60e01b815260040160405180910390fd5b335f908152600760205260408120549061044b8243610ddc565b9050811580159061045d575061a8c081105b156104935761046e8161a8c0610ddc565b6040516312272bab60e01b815260040161048a91815260200190565b60405180910390fd5b335f8181526007602052604090204390556104c5906104b46006600a610ed2565b6104c0906103e8610ee0565b610838565b337f5d4f415c63cd8a5874d9d291cdd64cec37e5dc236d90d659c958d109d78074b36104f36006600a610ed2565b6104ff906103e8610ee0565b60405190815260200160405180910390a25050565b5f3361052185828561086c565b61052c8585856108e7565b506001949350505050565b61053f610944565b600554600160a01b900460ff16610569576040516317efbd6b60e01b815260040160405180910390fd5b805f036105895760405163162908e360e11b815260040160405180910390fd5b6105938282610838565b5050565b6006546001600160a01b0316331461053f57604051633e34a41b60e21b815260040160405180910390fd5b6105ca610944565b600554600160a01b900460ff166105f4576040516317efbd6b60e01b815260040160405180910390fd5b8281146106355760405162461bcd60e51b815260206004820152600f60248201526e098cadccee8d040dad2e6dac2e8c6d608b1b604482015260640161048a565b5f5b8381101561068f5761068785858381811061065457610654610ef7565b90506020020160208101906106699190610d20565b84848481811061067b5761067b610ef7565b90506020020135610838565b600101610637565b5050505050565b61069e610944565b6106a75f610971565b565b6106b56006600a610ed2565b6106c1906103e8610ee0565b81565b60606004805461036d90610d90565b5f336103fb8185856108e7565b6001600160a01b0381165f9081526007602052604081205480820361070757505f92915050565b5f61071461a8c083610f0b565b905080431061072657505f9392505050565b6107304382610ddc565b949350505050565b610740610944565b6001600160a01b03811661076957604051631e4fbdf760e01b81525f600482015260240161048a565b61077281610971565b50565b61077d610944565b60058054821515600160a01b0260ff60a01b199091161790556040517f8ba9af8fef251a59a57bb383a518ff12b3c2770c23cf0ab9a59a9e2390e08f43906107ca90831515815260200190565b60405180910390a150565b6107dd610944565b600680546001600160a01b0319166001600160a01b0383169081179091556040517fad0f299ec81a386c98df0ac27dae11dd020ed1b56963c53a7292e7a3a314539a905f90a250565b61083383838360016109c2565b505050565b6001600160a01b0382166108615760405163ec442f0560e01b81525f600482015260240161048a565b6105935f8383610a94565b6001600160a01b038381165f908152600160209081526040808320938616835292905220545f1981146108e157818110156108d357604051637dc7a0d960e11b81526001600160a01b0384166004820152602481018290526044810183905260640161048a565b6108e184848484035f6109c2565b50505050565b6001600160a01b03831661091057604051634b637e8f60e11b81525f600482015260240161048a565b6001600160a01b0382166109395760405163ec442f0560e01b81525f600482015260240161048a565b610833838383610a94565b6005546001600160a01b031633146106a75760405163118cdaa760e01b815233600482015260240161048a565b600580546001600160a01b038381166001600160a01b0319831681179093556040519116919082907f8be0079c531659141344cd1fd0a4f28419497f9722a3daafe3b4186f6b6457e0905f90a35050565b6001600160a01b0384166109eb5760405163e602df0560e01b81525f600482015260240161048a565b6001600160a01b038316610a1457604051634a1406b160e11b81525f600482015260240161048a565b6001600160a01b038085165f90815260016020908152604080832093871683529290522082905580156108e157826001600160a01b0316846001600160a01b03167f8c5be1e5ebec7d5bd14f71427d1e84f3dd0314c0f7b2291e5b200ac8c7c3b92584604051610a8691815260200190565b60405180910390a350505050565b6001600160a01b038316610abe578060025f828254610ab39190610f0b565b90915550610b2e9050565b6001600160a01b0383165f9081526020819052604090205481811015610b105760405163391434e360e21b81526001600160a01b0385166004820152602481018290526044810183905260640161048a565b6001600160a01b0384165f9081526020819052604090209082900390555b6001600160a01b038216610b4a57600280548290039055610b68565b6001600160a01b0382165f9081526020819052604090208054820190555b816001600160a01b0316836001600160a01b03167fddf252ad1be2c89b69c2b068fc378daa952ba7f163c4a11628f55a4df523b3ef83604051610bad91815260200190565b60405180910390a3505050565b602081525f82518060208401528060208501604085015e5f604082850101526040601f19601f83011684010191505092915050565b80356001600160a01b0381168114610c05575f5ffd5b919050565b5f5f60408385031215610c1b575f5ffd5b610c2483610bef565b946020939093013593505050565b5f5f5f60608486031215610c44575f5ffd5b610c4d84610bef565b9250610c5b60208501610bef565b929592945050506040919091013590565b5f5f83601f840112610c7c575f5ffd5b50813567ffffffffffffffff811115610c93575f5ffd5b6020830191508360208260051b8501011115610cad575f5ffd5b9250929050565b5f5f5f5f60408587031215610cc7575f5ffd5b843567ffffffffffffffff811115610cdd575f5ffd5b610ce987828801610c6c565b909550935050602085013567ffffffffffffffff811115610d08575f5ffd5b610d1487828801610c6c565b95989497509550505050565b5f60208284031215610d30575f5ffd5b610d3982610bef565b9392505050565b5f5f60408385031215610d51575f5ffd5b610d5a83610bef565b9150610d6860208401610bef565b90509250929050565b5f60208284031215610d81575f5ffd5b81358015158114610d39575f5ffd5b600181811c90821680610da457607f821691505b602082108103610dc257634e487b7160e01b5f52602260045260245ffd5b50919050565b634e487b7160e01b5f52601160045260245ffd5b8181038181111561040157610401610dc8565b6001815b6001841115610e2a57808504811115610e0e57610e0e610dc8565b6001841615610e1c57908102905b60019390931c928002610df3565b935093915050565b5f82610e4057506001610401565b81610e4c57505f610401565b8160018114610e625760028114610e6c57610e88565b6001915050610401565b60ff841115610e7d57610e7d610dc8565b50506001821b610401565b5060208310610133831016604e8410600b8410161715610eab575081810a610401565b610eb75f198484610def565b805f1904821115610eca57610eca610dc8565b029392505050565b5f610d3960ff841683610e32565b808202811582820484141761040157610401610dc8565b634e487b7160e01b5f52603260045260245ffd5b8082018082111561040157610401610dc856fea2646970667358221220c944cad96888b75577314709f4d585115ccdd78fdfcf8e455141ba21587d985f64736f6c634300081c0033","linkReferences":{}},"methodIdentifiers":{"FAUCET_AMOUNT()":"76697640","FAUCET_COOLDOWN()":"7d1d5d19","allowance(address,address)":"dd62ed3e","approve(address,uint256)":"095ea7b3","balanceOf(address)":"70a08231","batchMint(address[],uint256[])":"68573107","decimals()":"313ce567","faucetClaim()":"155a3e18","faucetCooldownRemaining(address)":"b44bae8e","lastFaucetClaim(address)":"8a877205","mint(address,uint256)":"40c10f19","mintEnabled()":"d1239730","mintTo(address,uint256)":"449a52f8","minter()":"07546172","name()":"06fdde03","owner()":"8da5cb5b","renounceOwnership()":"715018a6","setMintEnabled(bool)":"f46a04eb","setMinter(address)":"fca3b5aa","symbol()":"95d89b41","totalSupply()":"18160ddd","transfer(address,uint256)":"a9059cbb","transferFrom(address,address,uint256)":"23b872dd","transferOwnership(address)":"f2fde38b"},"id":31}